12021102006 000300000006000000060019900000000000PAOLETTA NATALIA CAROLINA     00000000014440000000000000000000000000012727700000000001712300000000000000000000000000000000000000000000000000000000000000000000000000000000000000000000000000000000001PES00010000002 7142844376768320211030        
12022010606 000300000021000000210019900000000000PAOLETTA NATALIA CAROLINA     00000000100000000000000000000000000000088141800000000011858200000000000000000000000000000000000000000000000000000000000000000000000000000000000000000000000000000000001PES00010000002 7201804121470520220116        
2202110             00000002                 20243713618                     000000001144400000000000000000000000001008695000000000135705000000000000000000000000000000000000000000000000000000000000000000000000000000000000000000                                                               
